:080AD1005FFAFFFF0000800145
:100A4100202008000100020004000800100020001E
:100A51004000800100020004000800100020004056
:100A610000800020202880000001FC3F04000401D8
:100A710004010401F43F04018402840244042408B3
:060A81001230000000002D
:10092300784E7C007D007BFF7A0A79D17E007F04BC
:100933001208D078527C007D007BFF7A0A79D57E3D
:10094300007F041208D0754A00754B50854A4C85C8
:100953004B4DD3E54D9400E54C6480948040EDE429
:04096300F548F54915
:10096700AF49EF25E02429F8E6F4F556EF25E02412
:1009770028F8E6F4F557EF25E02408F8E6F558EFF0
:1009870025E02409F8E6F5597B007A007956120A22
:0109970088D7
:100998000549E54970020548C39410E54864809408
:0D09A8008040BCE54D154D70A4154C80A09D
:060A88008B5A8A5B895CB9
:020A8E00E4FF83
:100A9000AB5AAA5BA95C8F827583001208F6F55DDC
:100AA000E4FEE55DC4131313540124FF92B4E55D25
:0D0AB00025E0F55DC2B6D2B6000EBE08E529
:0A0ABD000FBF04CFC2B5D2B5C2B519
:010AC700220C
:080AC8007F617EECDEFEDFFA27
:010AD0002203
:030000000209B53D
:0C09B500787FE4F6D8FD75815D0209FC36
:10080000E709F608DFFA8046E709F208DFFA803EDA
:1008100088828C83E709F0A3DFFA8032E309F608C7
:10082000DFFA8078E309F208DFFA807088828C832F
:10083000E309F0A3DFFA806489828A83E0A3F608E3
:10084000DFFA805889828A83E0A3F208DFFA804CBD
:1008500080D280FA80C680D4806980F28033801094
:1008600080A680EA809A80A880DA80E280CA8033FD
:1008700089828A83ECFAE493A3C8C582C8CCC58375
:10088000CCF0A3C8C582C8CCC583CCDFE9DEE78045
:100890000D89828A83E493A3F608DFF9ECFAA9F0C4
:1008A000EDFB2289828A83ECFAE0A3C8C582C8CC1A
:1008B000C583CCF0A3C8C582C8CCC583CCDFEADE33
:1008C000E880DB89828A83E493A3F208DFF980CC95
:1008D00088F0EF60010E4E60C388F0ED2402B4048E
:1008E0000050B9F582EB2402B4040050AF23234535
:0608F00082239008507302
:1008F600BB010CE58229F582E5833AF583E02250B7
:1009060006E92582F8E622BBFE06E92582F8E22200
:0D091600E58229F582E5833AF583E493221A
:1009C100020923E493A3F8E493A34003F68001F220
:1009D10008DFF48029E493A3F85407240CC8C33337
:1009E100C4540F4420C8834004F456800146F6DF06
:1009F100E4800B0102040810204080900A41E47E4B
:100A0100019360BCA3FF543F30E509541FFEE493FA
:100A1100A360010ECF54C025E060A840B8E493A3C1
:100A2100FAE493A3F8E493A3C8C582C8CAC583CAEC
:100A3100F0A3C8C582C8CAC583CADFE9DEE780BEA4
:010A8700006E
:00000001FF
